:020000020000FC
:060000000C943400000026
:060040000C94AE0000006C
:1000680008E00EBF0FEF0DBF60E00FEF04B907B94E
:100078000AB93C983D9865B968B96BB950912500A3
:1000880055E050932500789450916E0051E05093BC
:100098006E0050917C0050E650937C0050917A009D
:1000A80057E850937A00B1E0A0E00AEA0D93509126
:1000B8007C0054E050937C0000E000E400937A0058
:1000C80050917A0050E450937A0050917A00509100
:1000D8007A0056FD0C9469000000009178000C939A
:1000E80001D0E1CFB1E0A0E0409A0D9108831ED085
:1000F8004098419A08831AD04198429A088316D0AA
:100108004298439A088312D043985A9A08830ED08B
:100118005A985B9A08830AD05B985C9A088306D041
:100128005C985D9A088302D05D980895188117FB42
:1001380046F916FB47F915FB20F914FB21F913FBC7
:1001480022F912FB23F911FB24F910FB25F94BB90D
:1001580025B908950FEF419A0D910883E7DF41987B
:020168001895E8
:00000001FF
