:020000020000FC
:060000000C943400000026
:060040000C94B900000061
:1000680008E00EBF0FEF0DBF60E051E00FEF04B9DD
:1000780007B90AB93C983D9865B968B96BB950E0B9
:1000880055E050932500789450E051E050936E006D
:1000980050E050E650937C0050E057E850937A00C7
:1000A800B1E0A0E00AEA0D9305E50D930AEA0D9385
:1000B80005E50D930AEA0D9305E50D930AEA0D93FC
:1000C80005E50D9350E054E050937C0050E050E477
:1000D80050937A0050E050917A0056FD0C946E00CF
:1000E800000050E05091780001D0DACFB1E0A0E0F4
:1000F800409A0D91088325D04098419A0D91088324
:1001080020D04198429A0D9108831BD04298439A77
:100118000D91088316D043985A9A0D91088311D0EF
:100128005A985B9A0D9108830CD05B985C9A0D9154
:10013800088307D05C985D9A0C91088302D05D987B
:100148000895188117FB46F916FB47F915FB20F9A6
:1001580014FB21F913FB22F912FB23F911FB24F9F3
:0C01680010FB25F94BB925B90895189536
:00000001FF
