:020000020000FC
:060000000C943400000026
:1000680008E00EBF0FEF0DBF60E051E00FEF04B9DD
:1000780007B90AB93C983D9865B968B96BB981E088
:1000880080936E0005E0009325007894D1E0C0E0ED
:100098000FEF409A08831FD04098419A08831BD0DD
:1000A8004198429A088317D04298439A088313D0FC
:1000B80043985A9A08830FD05A985B9A08830BD0B2
:1000C8005B985C9A088307D05C985D9A088303D094
:1000D8005D98DCCF0000188117FB46F916FB47F93D
:1000E80015FB20F914FB21F913FB22F912FB23F964
:0E00F80011FB24F910FB25F94BB925B9089529
:00000001FF
