:020000020000FC
:060000000C943400000026
:060040000C94A300000077
:1000680008E00EBF0FEF0DBF60E00FEF04B907B94E
:100078000AB93C983D9865B968B96BB950912500A3
:10008800556050932500789450916E0051605093BC
:100098006E0050917C00506650937C0050917A001D
:1000A800576850937A0050917C00556050937C00BB
:1000B80050917A00506450937A0050917A0056FD1E
:1000C8000C94610000000DEC03D000E001D0EBCFF0
:1000D800B1E0A0E0409A08831ED04098419A088376
:1000E8001AD04198429A088316D04298439A0883B6
:1000F80012D043985A9A08830ED05A985B9A08836C
:100108000AD05B985C9A088306D05C985D9A08834D
:1001180002D05D980895188110FB46F911FB47F944
:1001280012FB20F913FB21F914FB22F915FB23F923
:1001380016FB24F917FB25F94BB925B9089518952D
:080148008FEF8A95F1F708958D
:00000001FF
