:020000020000FC
:060000000C943400000026
:1000680008E00EBF0FEF0DBF60E051E00FEF04B9DD
:1000780007B90AB93C983D9865B968B96BB985E084
:1000880080932500789481E080936E00B1E0A0E031
:100098000AEA0D9305E50D930AEA0D9305E50D931C
:1000A8000AEA0D9305E50D930AEA0D9305E50D930C
:1000B80001D0ECCFB1E0A0E0409A0D91088325D0A3
:1000C8004098419A0D91088320D04198429A0D9109
:1000D80008831BD04298439A0D91088316D0439801
:1000E8005A9A0D91088311D05A985B9A0D910883FA
:1000F8000CD05B985C9A0D91088307D05C985D9A48
:100108000C91088302D05D980895188117FB46F971
:1001180016FB47F915FB20F914FB21F913FB22F90B
:1001280012FB23F911FB24F910FB25F94BB925B96A
:02013800089528
:00000001FF
