:020000020000FC
:060000000C943400000026
:1000680008E00EBF0FEF0DBF60E051E00FEF04B9DD
:1000780007B90AB93C983D9865B968B96BB980E089
:1000880085E080932500789480E081E080936E007D
:1000980000E000E600937C0000E007E800937A00A7
:1000A800B1E0A0E00AEA0D9305E50D930AEA0D9385
:1000B80005E50D930AEA0D9305E50D930AEA0D93FC
:1000C80005E50D9300E004E000937C0000E000E407
:1000D80000937A0000E000917A0006FD0C946E000F
:1000E800000000E0009178000D9301D0D9CFB1E075
:1000F800A0E0409A0D91088325D04098419A0D912F
:10010800088320D04198429A0D9108831BD04298C9
:10011800439A0D91088316D043985A9A0D910883F3
:1001280011D05A985B9A0D9108830CD05B985C9A11
:100138000D91088307D05C985D9A0C91088302D0D2
:100148005D980895188117FB46F916FB47F915FBCA
:1001580020F914FB21F913FB22F912FB23F911FBF7
:0E01680024F910FB25F94BB925B90895189517
:00000001FF
